{
  "contractName": "MusicDApp",
  "abi": [
    {
      "anonymous": false,
      "inputs": [
        {
          "indexed": false,
          "internalType": "uint256",
          "name": "amount",
          "type": "uint256"
        }
      ],
      "name": "Bought",
      "type": "event"
    },
    {
      "anonymous": false,
      "inputs": [
        {
          "indexed": false,
          "internalType": "uint256",
          "name": "amount",
          "type": "uint256"
        }
      ],
      "name": "Sold",
      "type": "event"
    },
    {
      "inputs": [],
      "name": "buy",
      "outputs": [],
      "stateMutability": "payable",
      "type": "function",
      "payable": true
    },
    {
      "inputs": [],
      "name": "exchange_rate",
      "outputs": [
        {
          "internalType": "uint256",
          "name": "",
          "type": "uint256"
        }
      ],
      "stateMutability": "view",
      "type": "function",
      "constant": true
    },
    {
      "inputs": [],
      "name": "getContractAddress",
      "outputs": [
        {
          "internalType": "address",
          "name": "",
          "type": "address"
        }
      ],
      "stateMutability": "view",
      "type": "function",
      "constant": true
    },
    {
      "inputs": [],
      "name": "getPoolEtherBalance",
      "outputs": [
        {
          "internalType": "uint256",
          "name": "",
          "type": "uint256"
        }
      ],
      "stateMutability": "view",
      "type": "function",
      "constant": true
    },
    {
      "inputs": [],
      "name": "getPoolTokenBalance",
      "outputs": [
        {
          "internalType": "uint256",
          "name": "",
          "type": "uint256"
        }
      ],
      "stateMutability": "view",
      "type": "function",
      "constant": true
    },
    {
      "inputs": [],
      "name": "getTokenSupply",
      "outputs": [
        {
          "internalType": "uint256",
          "name": "",
          "type": "uint256"
        }
      ],
      "stateMutability": "view",
      "type": "function",
      "constant": true
    },
    {
      "inputs": [
        {
          "internalType": "uint256",
          "name": "amount",
          "type": "uint256"
        }
      ],
      "name": "sell",
      "outputs": [],
      "stateMutability": "nonpayable",
      "type": "function"
    },
    {
      "inputs": [],
      "name": "token",
      "outputs": [
        {
          "internalType": "contract TokenPool",
          "name": "",
          "type": "address"
        }
      ],
      "stateMutability": "view",
      "type": "function",
      "constant": true
    },
    {
      "inputs": [
        {
          "internalType": "address",
          "name": "receiver",
          "type": "address"
        },
        {
          "internalType": "uint256",
          "name": "amount",
          "type": "uint256"
        }
      ],
      "name": "transferToken",
      "outputs": [],
      "stateMutability": "nonpayable",
      "type": "function"
    },
    {
      "inputs": [],
      "name": "userExists",
      "outputs": [
        {
          "internalType": "bool",
          "name": "",
          "type": "bool"
        }
      ],
      "stateMutability": "view",
      "type": "function",
      "constant": true
    },
    {
      "inputs": [],
      "name": "getUserBalance",
      "outputs": [
        {
          "internalType": "uint256",
          "name": "",
          "type": "uint256"
        }
      ],
      "stateMutability": "view",
      "type": "function",
      "constant": true
    },
    {
      "inputs": [],
      "name": "getUserInfo",
      "outputs": [
        {
          "components": [
            {
              "internalType": "string[]",
              "name": "upload_music_list",
              "type": "string[]"
            },
            {
              "internalType": "string[]",
              "name": "bought_music_list",
              "type": "string[]"
            },
            {
              "internalType": "bool",
              "name": "isValid",
              "type": "bool"
            }
          ],
          "internalType": "struct MusicDApp.User",
          "name": "",
          "type": "tuple"
        }
      ],
      "stateMutability": "view",
      "type": "function",
      "constant": true
    },
    {
      "inputs": [],
      "name": "getUploadMusicList",
      "outputs": [
        {
          "internalType": "string[]",
          "name": "",
          "type": "string[]"
        }
      ],
      "stateMutability": "view",
      "type": "function",
      "constant": true
    },
    {
      "inputs": [],
      "name": "getBoughtMusicList",
      "outputs": [
        {
          "internalType": "string[]",
          "name": "",
          "type": "string[]"
        }
      ],
      "stateMutability": "view",
      "type": "function",
      "constant": true
    },
    {
      "inputs": [
        {
          "internalType": "string",
          "name": "_ipfsHash",
          "type": "string"
        }
      ],
      "name": "findUploadMusic",
      "outputs": [
        {
          "internalType": "bool",
          "name": "",
          "type": "bool"
        }
      ],
      "stateMutability": "view",
      "type": "function",
      "constant": true
    },
    {
      "inputs": [
        {
          "internalType": "string",
          "name": "_ipfsHash",
          "type": "string"
        }
      ],
      "name": "findBoughtMusic",
      "outputs": [
        {
          "internalType": "bool",
          "name": "",
          "type": "bool"
        }
      ],
      "stateMutability": "view",
      "type": "function",
      "constant": true
    },
    {
      "inputs": [
        {
          "internalType": "string",
          "name": "_ipfsHash",
          "type": "string"
        },
        {
          "internalType": "string",
          "name": "_name",
          "type": "string"
        },
        {
          "internalType": "string",
          "name": "_artist",
          "type": "string"
        },
        {
          "internalType": "string",
          "name": "_coverFrom",
          "type": "string"
        }
      ],
      "name": "uploadMusic",
      "outputs": [],
      "stateMutability": "nonpayable",
      "type": "function"
    },
    {
      "inputs": [
        {
          "internalType": "string",
          "name": "_ipfsHash",
          "type": "string"
        },
        {
          "internalType": "string",
          "name": "_name",
          "type": "string"
        },
        {
          "internalType": "string",
          "name": "_artist",
          "type": "string"
        },
        {
          "internalType": "string",
          "name": "_coverFrom",
          "type": "string"
        },
        {
          "internalType": "address",
          "name": "uploader_addr",
          "type": "address"
        }
      ],
      "name": "uploadMusic_batch",
      "outputs": [],
      "stateMutability": "nonpayable",
      "type": "function"
    },
    {
      "inputs": [
        {
          "internalType": "string",
          "name": "_name",
          "type": "string"
        },
        {
          "internalType": "string",
          "name": "_artist",
          "type": "string"
        }
      ],
      "name": "musicExists",
      "outputs": [
        {
          "internalType": "bool",
          "name": "",
          "type": "bool"
        }
      ],
      "stateMutability": "view",
      "type": "function",
      "constant": true
    },
    {
      "inputs": [
        {
          "internalType": "string",
          "name": "_name",
          "type": "string"
        },
        {
          "internalType": "string",
          "name": "_artist",
          "type": "string"
        }
      ],
      "name": "getMusic",
      "outputs": [
        {
          "components": [
            {
              "internalType": "address",
              "name": "uploader",
              "type": "address"
            },
            {
              "internalType": "uint256",
              "name": "uploadTime",
              "type": "uint256"
            },
            {
              "internalType": "uint256",
              "name": "count",
              "type": "uint256"
            },
            {
              "internalType": "string",
              "name": "name",
              "type": "string"
            },
            {
              "internalType": "string",
              "name": "artist",
              "type": "string"
            },
            {
              "internalType": "string",
              "name": "ipfsHash",
              "type": "string"
            },
            {
              "internalType": "string",
              "name": "coverFrom",
              "type": "string"
            }
          ],
          "internalType": "struct MusicDApp.Music",
          "name": "",
          "type": "tuple"
        }
      ],
      "stateMutability": "view",
      "type": "function",
      "constant": true
    },
    {
      "inputs": [
        {
          "internalType": "string",
          "name": "_ipfsHash",
          "type": "string"
        }
      ],
      "name": "getMusicByHash",
      "outputs": [
        {
          "components": [
            {
              "internalType": "address",
              "name": "uploader",
              "type": "address"
            },
            {
              "internalType": "uint256",
              "name": "uploadTime",
              "type": "uint256"
            },
            {
              "internalType": "uint256",
              "name": "count",
              "type": "uint256"
            },
            {
              "internalType": "string",
              "name": "name",
              "type": "string"
            },
            {
              "internalType": "string",
              "name": "artist",
              "type": "string"
            },
            {
              "internalType": "string",
              "name": "ipfsHash",
              "type": "string"
            },
            {
              "internalType": "string",
              "name": "coverFrom",
              "type": "string"
            }
          ],
          "internalType": "struct MusicDApp.Music",
          "name": "",
          "type": "tuple"
        }
      ],
      "stateMutability": "view",
      "type": "function",
      "constant": true
    },
    {
      "inputs": [],
      "name": "getMusicList",
      "outputs": [
        {
          "components": [
            {
              "internalType": "address",
              "name": "uploader",
              "type": "address"
            },
            {
              "internalType": "uint256",
              "name": "uploadTime",
              "type": "uint256"
            },
            {
              "internalType": "uint256",
              "name": "count",
              "type": "uint256"
            },
            {
              "internalType": "string",
              "name": "name",
              "type": "string"
            },
            {
              "internalType": "string",
              "name": "artist",
              "type": "string"
            },
            {
              "internalType": "string",
              "name": "ipfsHash",
              "type": "string"
            },
            {
              "internalType": "string",
              "name": "coverFrom",
              "type": "string"
            }
          ],
          "internalType": "struct MusicDApp.Music[]",
          "name": "",
          "type": "tuple[]"
        }
      ],
      "stateMutability": "view",
      "type": "function",
      "constant": true
    },
    {
      "inputs": [
        {
          "internalType": "string",
          "name": "_name",
          "type": "string"
        }
      ],
      "name": "getMusicArtistList",
      "outputs": [
        {
          "components": [
            {
              "internalType": "address",
              "name": "uploader",
              "type": "address"
            },
            {
              "internalType": "uint256",
              "name": "uploadTime",
              "type": "uint256"
            },
            {
              "internalType": "uint256",
              "name": "count",
              "type": "uint256"
            },
            {
              "internalType": "string",
              "name": "name",
              "type": "string"
            },
            {
              "internalType": "string",
              "name": "artist",
              "type": "string"
            },
            {
              "internalType": "string",
              "name": "ipfsHash",
              "type": "string"
            },
            {
              "internalType": "string",
              "name": "coverFrom",
              "type": "string"
            }
          ],
          "internalType": "struct MusicDApp.Music[]",
          "name": "",
          "type": "tuple[]"
        }
      ],
      "stateMutability": "view",
      "type": "function",
      "constant": true
    },
    {
      "inputs": [
        {
          "internalType": "string",
          "name": "_artist",
          "type": "string"
        }
      ],
      "name": "getArtistMusicList",
      "outputs": [
        {
          "components": [
            {
              "internalType": "address",
              "name": "uploader",
              "type": "address"
            },
            {
              "internalType": "uint256",
              "name": "uploadTime",
              "type": "uint256"
            },
            {
              "internalType": "uint256",
              "name": "count",
              "type": "uint256"
            },
            {
              "internalType": "string",
              "name": "name",
              "type": "string"
            },
            {
              "internalType": "string",
              "name": "artist",
              "type": "string"
            },
            {
              "internalType": "string",
              "name": "ipfsHash",
              "type": "string"
            },
            {
              "internalType": "string",
              "name": "coverFrom",
              "type": "string"
            }
          ],
          "internalType": "struct MusicDApp.Music[]",
          "name": "",
          "type": "tuple[]"
        }
      ],
      "stateMutability": "view",
      "type": "function",
      "constant": true
    },
    {
      "inputs": [
        {
          "internalType": "string",
          "name": "_ipfsHash",
          "type": "string"
        }
      ],
      "name": "buyMusicByHash",
      "outputs": [],
      "stateMutability": "nonpayable",
      "type": "function"
    },
    {
      "inputs": [
        {
          "internalType": "string",
          "name": "_ipfsHash",
          "type": "string"
        },
        {
          "internalType": "uint8",
          "name": "depth",
          "type": "uint8"
        }
      ],
      "name": "getMusicChainByHash",
      "outputs": [
        {
          "components": [
            {
              "internalType": "address",
              "name": "uploader",
              "type": "address"
            },
            {
              "internalType": "uint256",
              "name": "uploadTime",
              "type": "uint256"
            },
            {
              "internalType": "uint256",
              "name": "count",
              "type": "uint256"
            },
            {
              "internalType": "string",
              "name": "name",
              "type": "string"
            },
            {
              "internalType": "string",
              "name": "artist",
              "type": "string"
            },
            {
              "internalType": "string",
              "name": "ipfsHash",
              "type": "string"
            },
            {
              "internalType": "string",
              "name": "coverFrom",
              "type": "string"
            }
          ],
          "internalType": "struct MusicDApp.Music[]",
          "name": "",
          "type": "tuple[]"
        }
      ],
      "stateMutability": "view",
      "type": "function",
      "constant": true
    },
    {
      "inputs": [
        {
          "internalType": "string",
          "name": "_name",
          "type": "string"
        },
        {
          "internalType": "string",
          "name": "_artist",
          "type": "string"
        },
        {
          "internalType": "uint256",
          "name": "_index",
          "type": "uint256"
        },
        {
          "internalType": "uint256",
          "name": "depth",
          "type": "uint256"
        }
      ],
      "name": "getRelevantMusicArtistList",
      "outputs": [
        {
          "components": [
            {
              "internalType": "address",
              "name": "uploader",
              "type": "address"
            },
            {
              "internalType": "uint256",
              "name": "uploadTime",
              "type": "uint256"
            },
            {
              "internalType": "uint256",
              "name": "count",
              "type": "uint256"
            },
            {
              "internalType": "string",
              "name": "name",
              "type": "string"
            },
            {
              "internalType": "string",
              "name": "artist",
              "type": "string"
            },
            {
              "internalType": "string",
              "name": "ipfsHash",
              "type": "string"
            },
            {
              "internalType": "string",
              "name": "coverFrom",
              "type": "string"
            }
          ],
          "internalType": "struct MusicDApp.Music[10]",
          "name": "",
          "type": "tuple[10]"
        },
        {
          "internalType": "uint256",
          "name": "",
          "type": "uint256"
        },
        {
          "internalType": "bool",
          "name": "",
          "type": "bool"
        }
      ],
      "stateMutability": "view",
      "type": "function",
      "constant": true
    }
  ],
  "bytecode": "0x6080604052655af3107a40006001553480156200001b57600080fd5b506040516200002a906200006e565b604051809103906000f08015801562000047573d6000803e3d6000fd5b5060008054600160a060020a031916600160a060020a03929092169190911790556200007c565b6104948062004b8e83390190565b614b02806200008c6000396000f3fe60806040526004361061013f5760e060020a60003504631072cbea8114610144578063171ef0b214610166578063209af2dd14610191578063245fcb92146101be57806332a2c5d0146101d35780633854f10c146101f557806346c641f3146102245780635d8d15851461023957806360b377b81461025b5780637fb954481461027d57806380f3de65146102aa5780638aa4342c146102d75780639146436b146102ec57806393154af71461030c578063a59789641461032c578063a678b8301461034c578063a6f2ae3a1461036c578063ad974f4c14610374578063b1ddeab014610389578063b7013dc1146103a9578063e41bfe6e146103be578063e4849b32146103de578063e90fd8e7146103fe578063eae6d4da1461041e578063f7f6bd7f14610433578063fc0c546a14610453578063ffda283514610468575b600080fd5b34801561015057600080fd5b5061016461015f36600461419a565b61047d565b005b34801561017257600080fd5b5061017b610537565b6040516101889190614918565b60405180910390f35b34801561019d57600080fd5b506101b16101ac3660046141ea565b61053d565b6040516101889190614725565b3480156101ca57600080fd5b5061017b610832565b3480156101df57600080fd5b506101e8610837565b604051610188919061462e565b34801561020157600080fd5b506102156102103660046143e3565b61083b565b604051610188939291906146c6565b34801561023057600080fd5b5061017b610bdb565b34801561024557600080fd5b5061024e610c64565b60405161018891906148c6565b34801561026757600080fd5b50610270610e46565b6040516101889190614666565b34801561028957600080fd5b5061029d610298366004614224565b610f2a565b60405161018891906148b3565b3480156102b657600080fd5b506102ca6102c53660046141ea565b6111f6565b6040516101889190614778565b3480156102e357600080fd5b50610270611483565b3480156102f857600080fd5b5061029d6103073660046141ea565b611561565b34801561031857600080fd5b506101b1610327366004614453565b61180e565b34801561033857600080fd5b506102ca610347366004614224565b611e6f565b34801561035857600080fd5b5061016461036736600461432b565b61213e565b610164612601565b34801561038057600080fd5b5061017b6127a3565b34801561039557600080fd5b506101646103a4366004614284565b6127f5565b3480156103b557600080fd5b5061017b612cad565b3480156103ca57600080fd5b506101646103d93660046141ea565b612ce1565b3480156103ea57600080fd5b506101646103f93660046144a7565b6133e8565b34801561040a57600080fd5b506101b16104193660046141ea565b613562565b34801561042a57600080fd5b506102ca613849565b34801561043f57600080fd5b506102ca61044e3660046141ea565b613862565b34801561045f57600080fd5b506101e8613ae5565b34801561047457600080fd5b506101b1613af4565b600081116104a95760405160e560020a62461bcd0281526004016104a090614802565b60405180910390fd5b60005460405160e060020a6323b872dd028152600160a060020a03909116906323b872dd906104e090339086908690600401614642565b602060405180830381600087803b1580156104fa57600080fd5b505af115801561050e573d6000803e3d6000fd5b505050506040513d601f19601f8201168201806040525081019061053291906141c3565b505050565b60015481565b6060600060068360405161055191906145fc565b9081526020016040518091039020805480602002602001604051908101604052809291908181526020016000905b828210156108245760008481526020908190206040805160e081018252600786029092018054600160a060020a031683526001810154938301939093526002830154908201526003820180549192916060840191906105dd906149be565b80601f0160208091040260200160405190810160405280929190818152602001828054610609906149be565b80156106565780601f1061062b57610100808354040283529160200191610656565b820191906000526020600020905b81548152906001019060200180831161063957829003601f168201915b5050505050815260200160048201805461066f906149be565b80601f016020809104026020016040519081016040528092919081815260200182805461069b906149be565b80156106e85780601f106106bd576101008083540402835291602001916106e8565b820191906000526020600020905b8154815290600101906020018083116106cb57829003601f168201915b50505050508152602001600582018054610701906149be565b80601f016020809104026020016040519081016040528092919081815260200182805461072d906149be565b801561077a5780601f1061074f5761010080835404028352916020019161077a565b820191906000526020600020905b81548152906001019060200180831161075d57829003601f168201915b50505050508152602001600682018054610793906149be565b80601f01602080910402602001604051908101604052809291908181526020018280546107bf906149be565b801561080c5780601f106107e15761010080835404028352916020019161080c565b820191906000526020600020905b8154815290600101906020018083116107ef57829003601f168201915b5050505050815250508152602001906001019061057f565b50929450505050505b919050565b303190565b3090565b610843613fd3565b60008061084e613fd3565b600080610859614001565b88805b600254811015610bba5789851061087257610bba565b600281815481106108965760e060020a634e487b7102600052603260045260246000fd5b90600052602060002090600702016040518060e00160405290816000820160009054906101000a9004600160a060020a0316600160a060020a0316600160a060020a031681526020016001820154815260200160028201548152602001600382018054610902906149be565b80601f016020809104026020016040519081016040528092919081815260200182805461092e906149be565b801561097b5780601f106109505761010080835404028352916020019161097b565b820191906000526020600020905b81548152906001019060200180831161095e57829003601f168201915b50505050508152602001600482018054610994906149be565b80601f01602080910402602001604051908101604052809291908181526020018280546109c0906149be565b8015610a0d5780601f106109e257610100808354040283529160200191610a0d565b820191906000526020600020905b8154815290600101906020018083116109f057829003601f168201915b50505050508152602001600582018054610a26906149be565b80601f0160208091040260200160405190810160405280929190818152602001828054610a52906149be565b8015610a9f5780601f10610a7457610100808354040283529160200191610a9f565b820191906000526020600020905b815481529060010190602001808311610a8257829003601f168201915b50505050508152602001600682018054610ab8906149be565b80601f0160208091040260200160405190810160405280929190818152602001828054610ae4906149be565b8015610b315780601f10610b0657610100808354040283529160200191610b31565b820191906000526020600020905b815481529060010190602001808311610b1457829003601f168201915b5050505050815250509250610b4a8d8460600151613dbd565b80610b5e5750610b5e8c8460800151613dbd565b15610b9a57828686600a8110610b875760e060020a634e487b7102600052603260045260246000fd5b602002015284610b96816149fd565b9550505b81610ba4816149fd565b9250508080610bb2906149fd565b91505061085c565b50600254811415610bca57600192505b50929a919950975095505050505050565b6000805460405160e060020a6370a08231028152600160a060020a03909116906370a0823190610c0f90309060040161462e565b60206040518083038186803b158015610c2757600080fd5b505afa158015610c3b573d6000803e3d6000fd5b505050506040513d601f19601f82011682018060405250810190610c5f91906144bf565b905090565b610c6c614047565b3360009081526003602090815260408083208151815460809481028201850190935260608101838152909491938593919285929185015b82821015610d4f578382906000526020600020018054610cc2906149be565b80601f0160208091040260200160405190810160405280929190818152602001828054610cee906149be565b8015610d3b5780601f10610d1057610100808354040283529160200191610d3b565b820191906000526020600020905b815481529060010190602001808311610d1e57829003601f168201915b505050505081526020019060010190610ca3565b50505050815260200160018201805480602002602001604051908101604052809291908181526020016000905b82821015610e28578382906000526020600020018054610d9b906149be565b80601f0160208091040260200160405190810160405280929190818152602001828054610dc7906149be565b8015610e145780601f10610de957610100808354040283529160200191610e14565b820191906000526020600020905b815481529060010190602001808311610df757829003601f168201915b505050505081526020019060010190610d7c565b505050908252506002919091015460ff161515602090910152905090565b336000908152600360209081526040808320805482518185028101850190935280835260609492939192909184015b82821015610f21578382906000526020600020018054610e94906149be565b80601f0160208091040260200160405190810160405280929190818152602001828054610ec0906149be565b8015610f0d5780601f10610ee257610100808354040283529160200191610f0d565b820191906000526020600020905b815481529060010190602001808311610ef057829003601f168201915b505050505081526020019060010190610e75565b50505050905090565b610f32614001565b6000600584604051610f4491906145fc565b908152602001604051809103902083604051610f6091906145fc565b90815260408051918290036020908101832060e0840183528054600160a060020a03168452600181015491840191909152600281015491830191909152600381018054606084019190610fb2906149be565b80601f0160208091040260200160405190810160405280929190818152602001828054610fde906149be565b801561102b5780601f106110005761010080835404028352916020019161102b565b820191906000526020600020905b81548152906001019060200180831161100e57829003601f168201915b50505050508152602001600482018054611044906149be565b80601f0160208091040260200160405190810160405280929190818152602001828054611070906149be565b80156110bd5780601f10611092576101008083540402835291602001916110bd565b820191906000526020600020905b8154815290600101906020018083116110a057829003601f168201915b505050505081526020016005820180546110d6906149be565b80601f0160208091040260200160405190810160405280929190818152602001828054611102906149be565b801561114f5780601f106111245761010080835404028352916020019161114f565b820191906000526020600020905b81548152906001019060200180831161113257829003601f168201915b50505050508152602001600682018054611168906149be565b80601f0160208091040260200160405190810160405280929190818152602001828054611194906149be565b80156111e15780601f106111b6576101008083540402835291602001916111e1565b820191906000526020600020905b8154815290600101906020018083116111c457829003601f168201915b50505091909252509193505050505b92915050565b3360009081526003602090815260408083208151815460809481028201850190935260608101838152859491938492849190879085015b828210156112d957838290600052602060002001805461124c906149be565b80601f0160208091040260200160405190810160405280929190818152602001828054611278906149be565b80156112c55780601f1061129a576101008083540402835291602001916112c5565b820191906000526020600020905b8154815290600101906020018083116112a857829003601f168201915b50505050508152602001906001019061122d565b50505050815260200160018201805480602002602001604051908101604052809291908181526020016000905b828210156113b2578382906000526020600020018054611325906149be565b80601f0160208091040260200160405190810160405280929190818152602001828054611351906149be565b801561139e5780601f106113735761010080835404028352916020019161139e565b820191906000526020600020905b81548152906001019060200180831161138157829003601f168201915b505050505081526020019060010190611306565b505050908252506002919091015460ff161515602090910152805190915060005b8151811015611478578181815181106113ff5760e060020a634e487b7102600052603260045260246000fd5b602002602001015160405160200161141791906145fc565b604051602081830303815290604052805190602001208560405160200161143e91906145fc565b604051602081830303815290604052805190602001201415611466576001935050505061082d565b80611470816149fd565b9150506113d3565b506000949350505050565b336000908152600360209081526040808320600101805482518185028101850190935280835260609492939192909184015b82821015610f215783829060005260206000200180546114d4906149be565b80601f0160208091040260200160405190810160405280929190818152602001828054611500906149be565b801561154d5780601f106115225761010080835404028352916020019161154d565b820191906000526020600020905b81548152906001019060200180831161153057829003601f168201915b5050505050815260200190600101906114b5565b611569614001565b600060048360405161157b91906145fc565b90815260408051918290036020908101832060e0840183528054600160a060020a031684526001810154918401919091526002810154918301919091526003810180546060840191906115cd906149be565b80601f01602080910402602001604051908101604052809291908181526020018280546115f9906149be565b80156116465780601f1061161b57610100808354040283529160200191611646565b820191906000526020600020905b81548152906001019060200180831161162957829003601f168201915b5050505050815260200160048201805461165f906149be565b80601f016020809104026020016040519081016040528092919081815260200182805461168b906149be565b80156116d85780601f106116ad576101008083540402835291602001916116d8565b820191906000526020600020905b8154815290600101906020018083116116bb57829003601f168201915b505050505081526020016005820180546116f1906149be565b80601f016020809104026020016040519081016040528092919081815260200182805461171d906149be565b801561176a5780601f1061173f5761010080835404028352916020019161176a565b820191906000526020600020905b81548152906001019060200180831161174d57829003601f168201915b50505050508152602001600682018054611783906149be565b80601f01602080910402602001604051908101604052809291908181526020018280546117af906149be565b80156117fc5780601f106117d1576101008083540402835291602001916117fc565b820191906000526020600020905b8154815290600101906020018083116117df57829003601f168201915b50505091909252509195945050505050565b6060600060048460405161182291906145fc565b90815260408051918290036020908101832060e0840183528054600160a060020a03168452600181015491840191909152600281015491830191909152600381018054606084019190611874906149be565b80601f01602080910402602001604051908101604052809291908181526020018280546118a0906149be565b80156118ed5780601f106118c2576101008083540402835291602001916118ed565b820191906000526020600020905b8154815290600101906020018083116118d057829003601f168201915b50505050508152602001600482018054611906906149be565b80601f0160208091040260200160405190810160405280929190818152602001828054611932906149be565b801561197f5780601f106119545761010080835404028352916020019161197f565b820191906000526020600020905b81548152906001019060200180831161196257829003601f168201915b50505050508152602001600582018054611998906149be565b80601f01602080910402602001604051908101604052809291908181526020018280546119c4906149be565b8015611a115780601f106119e657610100808354040283529160200191611a11565b820191906000526020600020905b8154815290600101906020018083116119f457829003601f168201915b50505050508152602001600682018054611a2a906149be565b80601f0160208091040260200160405190810160405280929190818152602001828054611a56906149be565b8015611aa35780601f10611a7857610100808354040283529160200191611aa3565b820191906000526020600020905b815481529060010190602001808311611a8657829003601f168201915b50505050508152505090506000808460ff166001604060020a03811115611add5760e060020a634e487b7102600052604160045260246000fd5b604051908082528060200260200182016040528015611b1657816020015b611b03614001565b815260200190600190039081611afb5790505b5090505b8460ff168210611b2957611e66565b82818381518110611b4d5760e060020a634e487b7102600052603260045260246000fd5b6020026020010181905250604051602001611b6790614618565b604051602081830303815290604052805190602001208360c00151604051602001611b9291906145fc565b604051602081830303815290604052805190602001201415611bb357611e66565b60048360c00151604051611bc791906145fc565b90815260408051918290036020908101832060e0840183528054600160a060020a03168452600181015491840191909152600281015491830191909152600381018054606084019190611c19906149be565b80601f0160208091040260200160405190810160405280929190818152602001828054611c45906149be565b8015611c925780601f10611c6757610100808354040283529160200191611c92565b820191906000526020600020905b815481529060010190602001808311611c7557829003601f168201915b50505050508152602001600482018054611cab906149be565b80601f0160208091040260200160405190810160405280929190818152602001828054611cd7906149be565b8015611d245780601f10611cf957610100808354040283529160200191611d24565b820191906000526020600020905b815481529060010190602001808311611d0757829003601f168201915b50505050508152602001600582018054611d3d906149be565b80601f0160208091040260200160405190810160405280929190818152602001828054611d69906149be565b8015611db65780601f10611d8b57610100808354040283529160200191611db6565b820191906000526020600020905b815481529060010190602001808311611d9957829003601f168201915b50505050508152602001600682018054611dcf906149be565b80601f0160208091040260200160405190810160405280929190818152602001828054611dfb906149be565b8015611e485780601f10611e1d57610100808354040283529160200191611e48565b820191906000526020600020905b815481529060010190602001808311611e2b57829003601f168201915b50505050508152505092508180611e5e906149fd565b925050611b1a565b95945050505050565b600080600584604051611e8291906145fc565b908152602001604051809103902083604051611e9e91906145fc565b90815260408051918290036020908101832060e0840183528054600160a060020a03168452600181015491840191909152600281015491830191909152600381018054606084019190611ef0906149be565b80601f0160208091040260200160405190810160405280929190818152602001828054611f1c906149be565b8015611f695780601f10611f3e57610100808354040283529160200191611f69565b820191906000526020600020905b815481529060010190602001808311611f4c57829003601f168201915b50505050508152602001600482018054611f82906149be565b80601f0160208091040260200160405190810160405280929190818152602001828054611fae906149be565b8015611ffb5780601f10611fd057610100808354040283529160200191611ffb565b820191906000526020600020905b815481529060010190602001808311611fde57829003601f168201915b50505050508152602001600582018054612014906149be565b80601f0160208091040260200160405190810160405280929190818152602001828054612040906149be565b801561208d5780601f106120625761010080835404028352916020019161208d565b820191906000526020600020905b81548152906001019060200180831161207057829003601f168201915b505050505081526020016006820180546120a6906149be565b80601f01602080910402602001604051908101604052809291908181526020018280546120d2906149be565b801561211f5780601f106120f45761010080835404028352916020019161211f565b820191906000526020600020905b81548152906001019060200180831161210257829003601f168201915b5050509190925250509051600160a060020a0316151595945050505050565b6040805160e081018252600160a060020a0383811682524260208084019182526000948401858152606085018a8152608086018a905260a086018c905260c086018990526002805460018101825597528551600080516020614a4d83398151915260079098029788018054600160a060020a031916919096161785559251600080516020614a6d83398151915287015551600080516020614a8d833981519152860155905180519394859461220993600080516020614aad833981519152909201929091019061406a565b506080820151805161222591600484019160209091019061406a565b5060a0820151805161224191600584019160209091019061406a565b5060c0820151805161225d91600684019160209091019061406a565b5050508060058660405161227191906145fc565b90815260200160405180910390208560405161228d91906145fc565b908152604080516020928190038301902083518154600160a060020a031916600160a060020a039091161781558383015160018201559083015160028201556060830151805191926122e79260038501929091019061406a565b506080820151805161230391600484019160209091019061406a565b5060a0820151805161231f91600584019160209091019061406a565b5060c0820151805161233b91600684019160209091019061406a565b509050508060048760405161235091906145fc565b908152604080516020928190038301902083518154600160a060020a031916600160a060020a039091161781558383015160018201559083015160028201556060830151805191926123aa9260038501929091019061406a565b50608082015180516123c691600484019160209091019061406a565b5060a082015180516123e291600584019160209091019061406a565b5060c082015180516123fe91600684019160209091019061406a565b5090505060068560405161241291906145fc565b908152604080516020928190038301902080546001808201835560009283529184902085516007909202018054600160a060020a031916600160a060020a03909216919091178155848401519181019190915590830151600282015560608301518051849361248892600385019291019061406a565b50608082015180516124a491600484019160209091019061406a565b5060a082015180516124c091600584019160209091019061406a565b5060c082015180516124dc91600684019160209091019061406a565b5050506007846040516124ef91906145fc565b908152604080516020928190038301902080546001808201835560009283529184902085516007909202018054600160a060020a031916600160a060020a03909216919091178155848401519181019190915590830151600282015560608301518051849361256592600385019291019061406a565b506080820151805161258191600484019160209091019061406a565b5060a0820151805161259d91600584019160209091019061406a565b5060c082015180516125b991600684019160209091019061406a565b505050600160a060020a0382166000908152600360209081526040822080546001810182559083529181902088516125f893919091019189019061406a565b50505050505050565b6000805460405160e060020a6370a08231028152349291600160a060020a0316906370a082319061263690309060040161462e565b60206040518083038186803b15801561264e57600080fd5b505afa158015612662573d6000803e3d6000fd5b505050506040513d601f19601f8201168201806040525081019061268691906144bf565b9050600082116126ab5760405160e560020a62461bcd0281526004016104a090614783565b808211156126ce5760405160e560020a62461bcd0281526004016104a09061487e565b600054600154600160a060020a03909116906323b872dd90309033906126f49087614939565b6040518463ffffffff1660e060020a02815260040161271593929190614642565b602060405180830381600087803b15801561272f57600080fd5b505af1158015612743573d6000803e3d6000fd5b505050506040513d601f19601f8201168201806040525081019061276791906141c3565b507f4e08ba899977cf7d4c2964bce71c6b9a7ef76ee5166a4c1249a1e08016e33ef1826040516127979190614918565b60405180910390a15050565b60008060009054906101000a9004600160a060020a0316600160a060020a03166318160ddd6040518163ffffffff1660e060020a02815260040160206040518083038186803b158015610c2757600080fd5b6040805160e0810182523381524260208083019182526001938301848152606084018881526080850188905260a085018a905260c085018790526002805496870181556000528451600080516020614a4d83398151915260079097029687018054600160a060020a031916600160a060020a039092169190911781559351600080516020614a6d8339815191528701559051600080516020614a8d833981519152860155518051939485946128c093600080516020614aad833981519152909201929091019061406a565b50608082015180516128dc91600484019160209091019061406a565b5060a082015180516128f891600584019160209091019061406a565b5060c0820151805161291491600684019160209091019061406a565b5050508060058560405161292891906145fc565b90815260200160405180910390208460405161294491906145fc565b908152604080516020928190038301902083518154600160a060020a031916600160a060020a0390911617815583830151600182015590830151600282015560608301518051919261299e9260038501929091019061406a565b50608082015180516129ba91600484019160209091019061406a565b5060a082015180516129d691600584019160209091019061406a565b5060c082015180516129f291600684019160209091019061406a565b5090505080600486604051612a0791906145fc565b908152604080516020928190038301902083518154600160a060020a031916600160a060020a03909116178155838301516001820155908301516002820155606083015180519192612a619260038501929091019061406a565b5060808201518051612a7d91600484019160209091019061406a565b5060a08201518051612a9991600584019160209091019061406a565b5060c08201518051612ab591600684019160209091019061406a565b50905050600684604051612ac991906145fc565b908152604080516020928190038301902080546001808201835560009283529184902085516007909202018054600160a060020a031916600160a060020a039092169190911781558484015191810191909155908301516002820155606083015180518493612b3f92600385019291019061406a565b5060808201518051612b5b91600484019160209091019061406a565b5060a08201518051612b7791600584019160209091019061406a565b5060c08201518051612b9391600684019160209091019061406a565b505050600783604051612ba691906145fc565b908152604080516020928190038301902080546001808201835560009283529184902085516007909202018054600160a060020a031916600160a060020a039092169190911781558484015191810191909155908301516002820155606083015180518493612c1c92600385019291019061406a565b5060808201518051612c3891600484019160209091019061406a565b5060a08201518051612c5491600584019160209091019061406a565b5060c08201518051612c7091600684019160209091019061406a565b505033600090815260036020908152604082208054600181018255908352918190208851612ca594509201919088019061406a565b505050505050565b6000805460405160e060020a6370a08231028152600160a060020a03909116906370a0823190610c0f90339060040161462e565b60003390506000600483604051612cf891906145fc565b90815260408051918290036020908101832060e0840183528054600160a060020a03168452600181015491840191909152600281015491830191909152600381018054606084019190612d4a906149be565b80601f0160208091040260200160405190810160405280929190818152602001828054612d76906149be565b8015612dc35780601f10612d9857610100808354040283529160200191612dc3565b820191906000526020600020905b815481529060010190602001808311612da657829003601f168201915b50505050508152602001600482018054612ddc906149be565b80601f0160208091040260200160405190810160405280929190818152602001828054612e08906149be565b8015612e555780601f10612e2a57610100808354040283529160200191612e55565b820191906000526020600020905b815481529060010190602001808311612e3857829003601f168201915b50505050508152602001600582018054612e6e906149be565b80601f0160208091040260200160405190810160405280929190818152602001828054612e9a906149be565b8015612ee75780601f10612ebc57610100808354040283529160200191612ee7565b820191906000526020600020905b815481529060010190602001808311612eca57829003601f168201915b50505050508152602001600682018054612f00906149be565b80601f0160208091040260200160405190810160405280929190818152602001828054612f2c906149be565b8015612f795780601f10612f4e57610100808354040283529160200191612f79565b820191906000526020600020905b815481529060010190602001808311612f5c57829003601f168201915b50505091909252505081516040805160e0810182526064815260326020820152601991810191909152600c606082015260066080820152600360a0820152600160c082015292935085929091506000612fd1846111f6565b15612fe1575050505050506133e5565b612fea84613862565b15612ffa575050505050506133e5565b60078110613007576133a7565b8260405160200161301891906145e2565b604051602081830303815290604052805190602001208660405160200161303f91906145e2565b604051602081830303815290604052805190602001201461308f5761308f86848484600781106130825760e060020a634e487b7102600052603260045260246000fd5b602002015160ff16613f21565b60405160200161309e90614618565b604051602081830303815290604052805190602001208560c001516040516020016130c991906145fc565b6040516020818303038152906040528051906020012014156130ea576133a7565b82955060048560c0015160405161310191906145fc565b90815260408051918290036020908101832060e0840183528054600160a060020a03168452600181015491840191909152600281015491830191909152600381018054606084019190613153906149be565b80601f016020809104026020016040519081016040528092919081815260200182805461317f906149be565b80156131cc5780601f106131a1576101008083540402835291602001916131cc565b820191906000526020600020905b8154815290600101906020018083116131af57829003601f168201915b505050505081526020016004820180546131e5906149be565b80601f0160208091040260200160405190810160405280929190818152602001828054613211906149be565b801561325e5780601f106132335761010080835404028352916020019161325e565b820191906000526020600020905b81548152906001019060200180831161324157829003601f168201915b50505050508152602001600582018054613277906149be565b80601f01602080910402602001604051908101604052809291908181526020018280546132a3906149be565b80156132f05780601f106132c5576101008083540402835291602001916132f0565b820191906000526020600020905b8154815290600101906020018083116132d357829003601f168201915b50505050508152602001600682018054613309906149be565b80601f0160208091040260200160405190810160405280929190818152602001828054613335906149be565b80156133825780601f1061335757610100808354040283529160200191613382565b820191906000526020600020905b81548152906001019060200180831161336557829003601f168201915b505050505081525050945084600001519250808061339f906149fd565b915050612ffa565b336000908152600360209081526040822060019081018054918201815583529181902086516133dd93919091019187019061406a565b505050505050505b50565b6000811161340b5760405160e560020a62461bcd0281526004016104a0906147ba565b60005460405160e060020a6323b872dd028152600160a060020a03909116906323b872dd9061344290339030908690600401614642565b602060405180830381600087803b15801561345c57600080fd5b505af1158015613470573d6000803e3d6000fd5b505050506040513d601f19601f8201168201806040525081019061349491906141c3565b506000600154826134a5919061495c565b9050600033600160a060020a0316826040516134c09061462b565b60006040518083038185875af1925050503d80600081146134fd576040519150601f19603f3d011682016040523d82523d6000602084013e613502565b606091505b50509050806135265760405160e560020a62461bcd0281526004016104a09061484b565b7f92f64ca637d023f354075a4be751b169c1a8a9ccb6d33cdd0cb3520543995727836040516135559190614918565b60405180910390a1505050565b6060600060078360405161357691906145fc565b9081526020016040518091039020805480602002602001604051908101604052809291908181526020016000905b828210156108245760008481526020908190206040805160e081018252600786029092018054600160a060020a03168352600181015493830193909352600283015490820152600382018054919291606084019190613602906149be565b80601f016020809104026020016040519081016040528092919081815260200182805461362e906149be565b801561367b5780601f106136505761010080835404028352916020019161367b565b820191906000526020600020905b81548152906001019060200180831161365e57829003601f168201915b50505050508152602001600482018054613694906149be565b80601f01602080910402602001604051908101604052809291908181526020018280546136c0906149be565b801561370d5780601f106136e25761010080835404028352916020019161370d565b820191906000526020600020905b8154815290600101906020018083116136f057829003601f168201915b50505050508152602001600582018054613726906149be565b80601f0160208091040260200160405190810160405280929190818152602001828054613752906149be565b801561379f5780601f106137745761010080835404028352916020019161379f565b820191906000526020600020905b81548152906001019060200180831161378257829003601f168201915b505050505081526020016006820180546137b8906149be565b80601f01602080910402602001604051908101604052809291908181526020018280546137e4906149be565b80156138315780601f1061380657610100808354040283529160200191613831565b820191906000526020600020905b81548152906001019060200180831161381457829003601f168201915b505050505081525050815260200190600101906135a4565b3360009081526003602052604090206002015460ff1690565b3360009081526003602090815260408083208151815460809481028201850190935260608101838152859491938492849190879085015b828210156139455783829060005260206000200180546138b8906149be565b80601f01602080910402602001604051908101604052809291908181526020018280546138e4906149be565b80156139315780601f1061390657610100808354040283529160200191613931565b820191906000526020600020905b81548152906001019060200180831161391457829003601f168201915b505050505081526020019060010190613899565b50505050815260200160018201805480602002602001604051908101604052809291908181526020016000905b82821015613a1e578382906000526020600020018054613991906149be565b80601f01602080910402602001604051908101604052809291908181526020018280546139bd906149be565b8015613a0a5780601f106139df57610100808354040283529160200191613a0a565b820191906000526020600020905b8154815290600101906020018083116139ed57829003601f168201915b505050505081526020019060010190613972565b505050908252506002919091015460ff16151560209182015281015190915060005b815181101561147857818181518110613a6c5760e060020a634e487b7102600052603260045260246000fd5b6020026020010151604051602001613a8491906145fc565b6040516020818303038152906040528051906020012085604051602001613aab91906145fc565b604051602081830303815290604052805190602001201415613ad3576001935050505061082d565b80613add816149fd565b915050613a40565b600054600160a060020a031681565b60606002805480602002602001604051908101604052809291908181526020016000905b82821015610f215760008481526020908190206040805160e081018252600786029092018054600160a060020a03168352600181015493830193909352600283015490820152600382018054919291606084019190613b76906149be565b80601f0160208091040260200160405190810160405280929190818152602001828054613ba2906149be565b8015613bef5780601f10613bc457610100808354040283529160200191613bef565b820191906000526020600020905b815481529060010190602001808311613bd257829003601f168201915b50505050508152602001600482018054613c08906149be565b80601f0160208091040260200160405190810160405280929190818152602001828054613c34906149be565b8015613c815780601f10613c5657610100808354040283529160200191613c81565b820191906000526020600020905b815481529060010190602001808311613c6457829003601f168201915b50505050508152602001600582018054613c9a906149be565b80601f0160208091040260200160405190810160405280929190818152602001828054613cc6906149be565b8015613d135780601f10613ce857610100808354040283529160200191613d13565b820191906000526020600020905b815481529060010190602001808311613cf657829003601f168201915b50505050508152602001600682018054613d2c906149be565b80601f0160208091040260200160405190810160405280929190818152602001828054613d58906149be565b8015613da55780601f10613d7a57610100808354040283529160200191613da5565b820191906000526020600020905b815481529060010190602001808311613d8857829003601f168201915b50505050508152505081526020019060010190613b18565b60405160009083908390613dd59082906020016145fc565b6040516020818303038152906040528051906020012085604051602001613dfc91906145fc565b604051602081830303815290604052805190602001201415613e23576001925050506111f0565b6000805b83518351613e35919061497b565b811015613f1757600160005b8551811015613ef357858181518110613e6d5760e060020a634e487b7102600052603260045260246000fd5b602001015160f860020a900460f860020a02600160f860020a031916858285613e969190614921565b81518110613eb75760e060020a634e487b7102600052603260045260246000fd5b602001015160f860020a900460f860020a02600160f860020a03191614613ee15760009150613ef3565b80613eeb816149fd565b915050613e41565b508015613f04576001925050613f17565b5080613f0f816149fd565b915050613e27565b5095945050505050565b60008111613f445760405160e560020a62461bcd0281526004016104a090614802565b60005460405160e060020a6323b872dd028152600160a060020a03909116906323b872dd90613f7b90869086908690600401614642565b602060405180830381600087803b158015613f9557600080fd5b505af1158015613fa9573d6000803e3d6000fd5b505050506040513d601f19601f82011682018060405250810190613fcd91906141c3565b50505050565b604051806101400160405280600a905b613feb614001565b815260200190600190039081613fe35790505090565b6040518060e001604052806000600160a060020a031681526020016000815260200160008152602001606081526020016060815260200160608152602001606081525090565b604051806060016040528060608152602001606081526020016000151581525090565b828054614076906149be565b90600052602060002090601f01602090048101928261409857600085556140de565b82601f106140b157805160ff19168380011785556140de565b828001600101855582156140de579182015b828111156140de5782518255916020019190600101906140c3565b506140ea9291506140ee565b5090565b5b808211156140ea57600081556001016140ef565b8035600160a060020a038116811461082d57600080fd5b600082601f83011261412a578081fd5b81356001604060020a038082111561414457614144614a32565b604051601f8301601f19168101602001828111828210171561416857614168614a32565b60405282815284830160200186101561417f578384fd5b82602086016020830137918201602001929092529392505050565b600080604083850312156141ac578182fd5b6141b583614103565b946020939093013593505050565b6000602082840312156141d4578081fd5b815180151581146141e3578182fd5b9392505050565b6000602082840312156141fb578081fd5b81356001604060020a03811115614210578182fd5b61421c8482850161411a565b949350505050565b60008060408385031215614236578182fd5b82356001604060020a038082111561424c578384fd5b6142588683870161411a565b9350602085013591508082111561426d578283fd5b5061427a8582860161411a565b9150509250929050565b60008060008060808587031215614299578182fd5b84356001604060020a03808211156142af578384fd5b6142bb8883890161411a565b955060208701359150808211156142d0578384fd5b6142dc8883890161411a565b945060408701359150808211156142f1578384fd5b6142fd8883890161411a565b93506060870135915080821115614312578283fd5b5061431f8782880161411a565b91505092959194509250565b600080600080600060a08688031215614342578081fd5b85356001604060020a0380821115614358578283fd5b61436489838a0161411a565b96506020880135915080821115614379578283fd5b61438589838a0161411a565b9550604088013591508082111561439a578283fd5b6143a689838a0161411a565b945060608801359150808211156143bb578283fd5b506143c88882890161411a565b9250506143d760808701614103565b90509295509295909350565b600080600080608085870312156143f8578384fd5b84356001604060020a038082111561440e578586fd5b61441a8883890161411a565b9550602087013591508082111561442f578485fd5b5061443c8782880161411a565b949794965050505060408301359260600135919050565b60008060408385031215614465578182fd5b82356001604060020a0381111561447a578283fd5b6144868582860161411a565b925050602083013560ff8116811461449c578182fd5b809150509250929050565b6000602082840312156144b8578081fd5b5035919050565b6000602082840312156144d0578081fd5b5051919050565b60008282518085526020808601955080818302840101818601855b8481101561452057601f1986840301895261450e83835161452d565b988401989250908301906001016144f2565b5090979650505050505050565b60008151808452614545816020860160208601614992565b601f01601f19169290920160200192915050565b6000600160a060020a0382511683526020820151602084015260408201516040840152606082015160e0606085015261459560e085018261452d565b9050608083015184820360808601526145ae828261452d565b91505060a083015184820360a08601526145c8828261452d565b91505060c083015184820360c0860152611e66828261452d565b600160a060020a0391909116606060020a02815260140190565b6000825161460e818460208701614992565b9190910192915050565b60e060020a634e6f6e6502815260040190565b90565b600160a060020a0391909116815260200190565b600160a060020a039384168152919092166020820152604081019190915260600190565b6000602080830181845280855180835260408601915060408482028701019250838701855b828110156146b957603f198886030184526146a785835161452d565b9450928501929085019060010161468b565b5092979650505050505050565b60608082526000906101a0830190830186835b600a81101561470b57605f198685030183526146f6848351614559565b935060209283019291909101906001016146d9565b505050602083019490945250901515604090910152919050565b6000602080830181845280855180835260408601915060408482028701019250838701855b828110156146b957603f19888603018452614766858351614559565b9450928501929085019060010161474a565b901515815260200190565b6020808252601b908201527f596f75206e65656420746f2073656e6420736f6d652045746865720000000000604082015260600190565b60208082526025908201527f596f75206e65656420746f2073656c6c206174206c6561737420736f6d652074604082015260d860020a646f6b656e7302606082015260800190565b60208082526026908201527f596f75206e65656420746f20656e746572206174206c6561737420736f6d6520604082015260d060020a65746f6b656e7302606082015260800190565b6020808252601690820152605160020a752a3930b739b332b91022ba3432b9103330b4b632b21702604082015260600190565b6020808252818101527f4e6f7420656e6f75676820746f6b656e7320696e207468652072657365727665604082015260600190565b6000602082526141e36020830184614559565b6000602082528251606060208401526148e260808401826144d7565b90506020840151601f198483030160408501526148ff82826144d7565b9150506040840151151560608401528091505092915050565b90815260200190565b6000821982111561493457614934614a18565b500190565b6000826149575760e060020a634e487b710281526012600452602481fd5b500490565b600081600019048311821515161561497657614976614a18565b500290565b60008282101561498d5761498d614a18565b500390565b60005b838110156149ad578181015183820152602001614995565b83811115613fcd5750506000910152565b6002810460018216806149d257607f821691505b602082108114156149f75760e060020a634e487b710260009081526022600452602490fd5b50919050565b6000600019821415614a1157614a11614a18565b5060010190565b60e060020a634e487b710260009081526011600452602490fd5b60e060020a634e487b710260009081526041600452602490fdfe405787fa12a823e0f2b7631cc41b3ba8828b3321ca811111fa75cd3aa3bb5ace405787fa12a823e0f2b7631cc41b3ba8828b3321ca811111fa75cd3aa3bb5acf405787fa12a823e0f2b7631cc41b3ba8828b3321ca811111fa75cd3aa3bb5ad0405787fa12a823e0f2b7631cc41b3ba8828b3321ca811111fa75cd3aa3bb5ad1a2646970667358221220fc6f3ed58e5f8123829fd0a81b4b7e041d346626f7e9dc6f52b5285ae41fbfa664736f6c63430008000033608060405268056bc75e2d6310000060015534801561001d57600080fd5b5060015433600090815260208190526040902055610454806100406000396000f3fe608060405234801561001057600080fd5b50600436106100655760e060020a600035046306fdde03811461006a57806318160ddd1461008857806323b872dd1461009d578063313ce567146100bd57806370a08231146100d257806395d89b41146100e5575b600080fd5b6100726100ed565b60405161007f9190610336565b60405180910390f35b610090610115565b60405161007f91906103be565b6100b06100ab3660046102f0565b61011b565b60405161007f919061032b565b6100c5610215565b60405161007f91906103c7565b6100906100e03660046102d6565b61021a565b610072610239565b60405180604001604052806009815260200160b960020a6826bab9b4b1a1b7b4b70281525081565b60015490565b600160a060020a03831660009081526020819052604081205482111561015f5760405160e560020a62461bcd02815260040161015690610389565b60405180910390fd5b600160a060020a038416600090815260208190526040902054610182908361025b565b600160a060020a0380861660009081526020819052604080822093909355908516815220546101b1908361028f565b600160a060020a0380851660008181526020819052604090819020939093559151908616907fddf252ad1be2c89b69c2b068fc378daa952ba7f163c4a11628f55a4df523b3ef906102039086906103be565b60405180910390a35060019392505050565b600281565b600160a060020a0381166000908152602081905260409020545b919050565b60405180604001604052806003815260200160e860020a624d55430281525081565b60008282111561027e5760e060020a634e487b7102600052600160045260246000fd5b61028882846103ed565b9392505050565b60008061029c83856103d5565b9050838110156102885760e060020a634e487b7102600052600160045260246000fd5b8035600160a060020a038116811461023457600080fd5b6000602082840312156102e7578081fd5b610288826102bf565b600080600060608486031215610304578182fd5b61030d846102bf565b925061031b602085016102bf565b9150604084013590509250925092565b901515815260200190565b6000602080835283518082850152825b8181101561036257858101830151858201604001528201610346565b818111156103735783604083870101525b50601f01601f1916929092016040019392505050565b6020808252818101527f546865206f776e657220686173206e6f20656e6f7567682062616c616e636521604082015260600190565b90815260200190565b60ff91909116815260200190565b600082198211156103e8576103e8610404565b500190565b6000828210156103ff576103ff610404565b500390565b60e060020a634e487b710260009081526011600452602490fdfea26469706673582212206040de48ee31f7ab146cf6b8c32edd594d3e02f77bce7b1cde006e0d7ddcc21964736f6c63430008000033",
  "immutableReferences": {},
  "source": "pragma solidity >=0.4.0 <0.9.0;\n\n// Support return struct in functions\npragma experimental ABIEncoderV2;\n\n// Import DEX\nimport \"./MusicToken.sol\";\n\n/*\n * The Music DApp contract.\n */\ncontract MusicDApp is DEX {\n    // Music metadata\n    struct Music {\n        address uploader;\n        uint256 uploadTime;\n        uint256 count;\n        string name;\n        string artist;\n        string ipfsHash;\n        string coverFrom;\n    }\n\n    struct User {\n        string[] upload_music_list;\n        string[] bought_music_list;\n        bool isValid;\n    }\n\n    // All musics\n    Music[] internal musics;\n\n    // All users\n    mapping(address => User) internal users;\n\n    // IPFS hash as key\n    mapping(string => Music) internal music_hash;\n\n    // (name, artist) as primary key\n    mapping(string => mapping(string => Music)) internal music;\n\n    // Name as primary key\n    mapping(string => Music[]) internal music_artist_list;\n\n    // Artist as primary key\n    mapping(string => Music[]) internal artist_music_list;\n\n\n    /* Public methods */\n\n    /*\n     * Check if user Exists. (Deprecated)\n     */\n    function userExists() public view returns (bool) {\n        return users[msg.sender].isValid;\n    }\n\n    /*\n     * Get user's balance.\n     * \n     * @param[out] amount: The number of tokens the user has.\n     */\n    function getUserBalance() public view returns (uint256) {\n        return token.balanceOf(msg.sender);\n    }\n\n    /*\n     * Get user information.\n     * \n     * @param[out] user: An user information including upload list and bought list.\n     */\n    function getUserInfo() public view returns (User memory) {\n        return users[msg.sender];\n    }\n\n    /*\n     * Get user's uploaded list. The user can listen to these musics without paying.\n     * \n     * @param[out] uploaded list: The user's uploaded list.\n     */\n    function getUploadMusicList() public view returns (string[] memory) {\n        return users[msg.sender].upload_music_list;\n    }\n\n    /*\n     * Get user's bought list. The can listen to these musics after he/she buy the music.\n     * \n     * @param[out] bought list: The user's bought list.\n     */\n    function getBoughtMusicList() public view returns (string[] memory) {\n        return users[msg.sender].bought_music_list;\n    }\n\n    /*\n     * Check if the user had upload this music before.\n     * \n     * @param[in] _ipfsHash: The music IPFS hash.\n     * @param[out] found: Find this music in the user's uploaded list or not.\n     */\n    function findUploadMusic(string memory _ipfsHash)\n        public\n        view\n        returns (bool)\n    {\n        User memory user = users[msg.sender];\n        string[] memory upload_list = user.upload_music_list;\n\n        for (uint256 i = 0; i < upload_list.length; i++) {\n            if (\n                keccak256(abi.encodePacked(_ipfsHash)) ==\n                keccak256(abi.encodePacked(upload_list[i]))\n            ) {\n                return true;\n            }\n        }\n\n        return false;\n    }\n\n    /*\n     * Check if the user had bought this music before.\n     * \n     * @param[in] _ipfsHash: The music IPFS hash.\n     * @param[out] found: Find this music in the user's bought list or not.\n     */\n    function findBoughtMusic(string memory _ipfsHash)\n        public\n        view\n        returns (bool)\n    {\n        User memory user = users[msg.sender];\n        string[] memory bought_list = user.bought_music_list;\n\n        for (uint256 i = 0; i < bought_list.length; i++) {\n            if (\n                keccak256(abi.encodePacked(_ipfsHash)) ==\n                keccak256(abi.encodePacked(bought_list[i]))\n            ) {\n                return true;\n            }\n        }\n\n        return false;\n    }\n\n    /*\n     * Upload music on the blockchain\n     * \n     * @param[in] _ipfsHash: The IPFS hash of the music.\n     * @param[in] _name: The name of the music.\n     * @param[in] _artist: The artist of the music.\n     * @param[in] _coverFrom: The cover from music's IPFS hash of the uploaded music.\n     */\n    function uploadMusic(\n        string memory _ipfsHash,\n        string memory _name,\n        string memory _artist,\n        string memory _coverFrom\n    ) public {\n        Music memory _music =\n            Music(\n                msg.sender,\n                block.timestamp,\n                1,\n                _name,\n                _artist,\n                _ipfsHash,\n                _coverFrom\n            );\n\n        // Global state update\n        musics.push(_music);\n        music[_name][_artist] = _music;\n        music_hash[_ipfsHash] = _music;\n        music_artist_list[_name].push(_music);\n        artist_music_list[_artist].push(_music);\n\n        // User state update\n        users[msg.sender].upload_music_list.push(_ipfsHash);\n    }\n\n    /*\n     * Upload music in a batch on the blockchain\n     * \n     * @param[in] _ipfsHash: The IPFS hash of the music.\n     * @param[in] _name: The name of the music.\n     * @param[in] _artist: The artist of the music.\n     * @param[in] _coverFrom: The cover from music's IPFS hash of the uploaded music.\n     * @param[in] uploader_addr: The uploader address.\n     */\n    function uploadMusic_batch(\n        string memory _ipfsHash,\n        string memory _name,\n        string memory _artist,\n        string memory _coverFrom,\n        address uploader_addr\n    ) public {\n        Music memory _music =\n            Music(\n                uploader_addr,\n                block.timestamp,\n                0,\n                _name,\n                _artist,\n                _ipfsHash,\n                _coverFrom\n            );\n\n        // Global state update\n        musics.push(_music);\n        music[_name][_artist] = _music;\n        music_hash[_ipfsHash] = _music;\n        music_artist_list[_name].push(_music);\n        artist_music_list[_artist].push(_music);\n\n        // User state update\n        users[uploader_addr].upload_music_list.push(_ipfsHash);\n    }\n\n    /*\n     * Check if the musics had already been uploaded on the blockchain.\n     * \n     * @param[in] _name: The name of the music.\n     * @param[in] _artist: The artist of the music.\n     * @param[out] found: Find this music in the user's on the blockchain or not.\n     */\n    function musicExists(string memory _name, string memory _artist) \n        public \n        view\n        returns (bool)\n    {\n        Music memory _music = music[_name][_artist];\n        address _uploader = _music.uploader;\n        bool exists = _uploader != address(0);\n        return exists;\n    }\n\n    /*\n     * Get music metadata from the blockchain using name and artist.\n     * \n     * @param[in] _name: The name of the music.\n     * @param[in] _artist: The artist of the music.\n     * @param[out] _music: The searched result of given name and artist.\n     */\n    function getMusic(string memory _name, string memory _artist)\n        public\n        view\n        returns (Music memory)\n    {\n        Music memory _music = music[_name][_artist];\n\n        return _music;\n    }\n\n    /*\n     * Get music metadata from the blockchain using IPFS hash.\n     * \n     * @param[in] _ipfsHash: The IPFS hash of the music.\n     * @param[out] _music: The searched result of given IPFS hash.\n     */\n    function getMusicByHash(string memory _ipfsHash)\n        public\n        view\n        returns (Music memory)\n    {\n        Music memory _music = music_hash[_ipfsHash];\n\n        return _music;\n    }\n\n    /*\n     * Get all musics on the blockchain.\n     * \n     * @param[out] musics: The musics array on the blockchain.\n     */\n    function getMusicList()\n        public \n        view \n        returns (Music[] memory) \n    {\n        return musics;\n    }\n\n    /*\n     * Get all musics on the blockchain given the music name.\n     * \n     * @param[in] _name: The music name.\n     * @param[out] _music_artist_list: The music list array of the given music name.\n     */\n    function getMusicArtistList(string memory _name)\n        public\n        view\n        returns (Music[] memory)\n    {\n        Music[] memory _music_artist_list = music_artist_list[_name];\n\n        return _music_artist_list;\n    }\n\n    /*\n     * Get all musics on the blockchain given the artist name.\n     * \n     * @param[in] _artist: The artist name.\n     * @param[out] _artist_music_list: The music list array of the given artist name.\n     */\n    function getArtistMusicList(string memory _artist)\n        public\n        view\n        returns (Music[] memory)\n    {\n        Music[] memory _artist_music_list = artist_music_list[_artist];\n\n        return _artist_music_list;\n    }       \n\n    /*\n     * Buy music by given IPFS hash\n     * \n     * @param[in] _ipfsHash: The music IPFS hash.\n     */\n    function buyMusicByHash(string memory _ipfsHash) public {\n        address sender = msg.sender;\n        Music memory _music = music_hash[_ipfsHash];\n        string memory songHash = _ipfsHash;\n        address uploader = _music.uploader;\n        uint8[7] memory chain = [100, 50, 25, 12, 6, 3, 1];\n        uint256 count = 0;\n\n        // Uploader can listen to what he had uploaded\n        if (findUploadMusic(songHash)) return;\n\n        // Buyer will not pay twice\n        if (findBoughtMusic(songHash)) return;\n\n        while (true) {\n            // The depth exceed the limit\n            if (count >= 7) {\n                break;\n            }\n\n            // Send token if the sender does not equals the receiver\n            if (\n                !(keccak256(abi.encodePacked(sender)) ==\n                keccak256(abi.encodePacked(uploader)))\n            ) {\n                transferTokenFrom(sender, uploader, chain[count]);\n            }\n\n            // Hit the end of the chain\n            if (\n                keccak256(abi.encodePacked((_music.coverFrom))) ==\n                keccak256(abi.encodePacked((\"None\")))\n            ) {\n                break;\n            }\n\n            // Go deeper for 1 level\n            sender = uploader;\n            _music = music_hash[_music.coverFrom];\n            uploader = _music.uploader;\n\n            count++;\n        }\n\n        // Add music to buyer's bought list\n        users[msg.sender].bought_music_list.push(songHash);\n    }\n\n    /*\n     * Get music cover from chain given IPFS hash.\n     * \n     * @param[in] _ipfsHash: The music IPFS hash.\n     * @param[in] depth: The depth of the searched chain.\n     * @param[out] music_chain: The found music chain.\n     */\n    function getMusicChainByHash(string memory _ipfsHash, uint8 depth)\n        public\n        view\n        returns (Music[] memory)\n    {\n        Music memory _music = music_hash[_ipfsHash];\n        uint256 count = 0;\n        Music[] memory music_chain = new Music[](depth);\n\n        while (true) {\n            // The depth exceed the limit\n            if (count >= depth) {\n                break;\n            }\n\n            music_chain[count] = _music;\n\n            // Hit the end of the chain\n            if (\n                keccak256(abi.encodePacked((_music.coverFrom))) ==\n                keccak256(abi.encodePacked((\"None\")))\n            ) {\n                break;\n            }\n\n            _music = music_hash[_music.coverFrom];\n\n            count++;\n        }\n\n        return music_chain;\n    }\n\n    /*\n     * Get relevant music list given name and artist.\n     * \n     * @param[in] _name: The music name keyword.\n     * @param[in] _artist: The artist name keyword.\n     * @param[in] _index: The starting point.\n     * @param[in] depth: The maximal length of returned list.\n     * @param[out] returnList: The found music list.\n     * @param[out] returnIndex: The stopping point of the search function, serving as the next search starting point.\n     * @param[out] reachEnd: Whether the search function hit the end of the musics array.\n     */\n    function getRelevantMusicArtistList(string memory _name, string memory _artist, uint _index, uint depth) \n        public \n        view \n        returns (Music[10] memory, uint, bool) \n    {\n        Music[10] memory returnList;\n        uint returnIndex = 0;\n        bool reachEnd = false;\n        Music memory _music;\n        uint index = _index;\n        \n        for(uint i = _index; i < musics.length; i++) {\n            if(returnIndex >= depth) break;\n            _music = musics[i];\n\n            // If a music name contains input name or artist, put it into return list \n            if(str_contains(_name, _music.name) || str_contains(_artist, _music.artist)) {\n                returnList[returnIndex] = _music;\n                returnIndex++;\n            }\n\n            index++;\n        }\n\n        // Tell frontend we had reach the end of the list\n        if (index == musics.length) {\n            reachEnd = true;\n        }\n\n        return (returnList, returnIndex, reachEnd);\n    }\n\n    \n\n    /* Private methods */ \n\n    /*\n     * Check if string is contained in other string.\n     * \n     * @param[in] what: The search keyword.\n     * @param[in] where: The to be checked string.\n     * @param[out] found: Whether containing the string or not.\n     */\n    function str_contains (string memory what, string memory where) private pure returns (bool){\n        bytes memory whatBytes = bytes (what);\n        bytes memory whereBytes = bytes (where);\n\n        if (keccak256(abi.encodePacked((what))) == keccak256(abi.encodePacked((where))))\n        {\n            return true;\n        }\n\n        bool found = false;\n        for (uint i = 0; i < whereBytes.length - whatBytes.length; i++) {\n            bool flag = true;\n\n            for (uint j = 0; j < whatBytes.length; j++)\n                if (whereBytes [i + j] != whatBytes [j]) {\n                    flag = false;\n                    break;\n                }\n\n            if (flag) {\n                found = true;\n                break;\n            }\n        }\n\n        return (found);\n    }\n}\n",
  "sourcePath": "/home/fergussojr/Documents/UGM/BlockChain/Demo/finalproject/MusicChain/react/src/contracts/MusicDApp.sol",
  "compiler": {
    "name": "solc",
    "version": "0.8.0+commit.c7dfd78e.Emscripten.clang"
  },
  "schemaVersion": "3.4.16",
  "updatedAt": "2025-11-25T15:08:21.353Z",
  "networkType": "ethereum",
  "devdoc": {
    "kind": "dev",
    "methods": {},
    "version": 1
  },
  "userdoc": {
    "kind": "user",
    "methods": {},
    "version": 1
  }
}