{
  "contractName": "MusicCoin",
  "abi": [
    {
      "inputs": [],
      "stateMutability": "nonpayable",
      "type": "constructor"
    },
    {
      "anonymous": false,
      "inputs": [
        {
          "indexed": true,
          "internalType": "address",
          "name": "from",
          "type": "address"
        },
        {
          "indexed": true,
          "internalType": "address",
          "name": "to",
          "type": "address"
        },
        {
          "indexed": false,
          "internalType": "uint256",
          "name": "value",
          "type": "uint256"
        }
      ],
      "name": "Transfer",
      "type": "event"
    },
    {
      "inputs": [],
      "name": "decimals",
      "outputs": [
        {
          "internalType": "uint8",
          "name": "",
          "type": "uint8"
        }
      ],
      "stateMutability": "view",
      "type": "function"
    },
    {
      "inputs": [],
      "name": "name",
      "outputs": [
        {
          "internalType": "string",
          "name": "",
          "type": "string"
        }
      ],
      "stateMutability": "view",
      "type": "function"
    },
    {
      "inputs": [],
      "name": "symbol",
      "outputs": [
        {
          "internalType": "string",
          "name": "",
          "type": "string"
        }
      ],
      "stateMutability": "view",
      "type": "function"
    },
    {
      "inputs": [],
      "name": "totalSupply",
      "outputs": [
        {
          "internalType": "uint256",
          "name": "",
          "type": "uint256"
        }
      ],
      "stateMutability": "view",
      "type": "function"
    },
    {
      "inputs": [
        {
          "internalType": "address",
          "name": "tokenOwner",
          "type": "address"
        }
      ],
      "name": "balanceOf",
      "outputs": [
        {
          "internalType": "uint256",
          "name": "",
          "type": "uint256"
        }
      ],
      "stateMutability": "view",
      "type": "function"
    },
    {
      "inputs": [
        {
          "internalType": "address",
          "name": "owner",
          "type": "address"
        },
        {
          "internalType": "address",
          "name": "buyer",
          "type": "address"
        },
        {
          "internalType": "uint256",
          "name": "numTokens",
          "type": "uint256"
        }
      ],
      "name": "transferFrom",
      "outputs": [
        {
          "internalType": "bool",
          "name": "",
          "type": "bool"
        }
      ],
      "stateMutability": "nonpayable",
      "type": "function"
    }
  ],
  "bytecode": "0x608060405268056bc75e2d6310000060015534801561001d57600080fd5b5060015433600090815260208190526040902055610454806100406000396000f3fe608060405234801561001057600080fd5b50600436106100655760e060020a600035046306fdde03811461006a57806318160ddd1461008857806323b872dd1461009d578063313ce567146100bd57806370a08231146100d257806395d89b41146100e5575b600080fd5b6100726100ed565b60405161007f9190610336565b60405180910390f35b610090610115565b60405161007f91906103be565b6100b06100ab3660046102f0565b61011b565b60405161007f919061032b565b6100c5610215565b60405161007f91906103c7565b6100906100e03660046102d6565b61021a565b610072610239565b60405180604001604052806009815260200160b960020a6826bab9b4b1a1b7b4b70281525081565b60015490565b600160a060020a03831660009081526020819052604081205482111561015f5760405160e560020a62461bcd02815260040161015690610389565b60405180910390fd5b600160a060020a038416600090815260208190526040902054610182908361025b565b600160a060020a0380861660009081526020819052604080822093909355908516815220546101b1908361028f565b600160a060020a0380851660008181526020819052604090819020939093559151908616907fddf252ad1be2c89b69c2b068fc378daa952ba7f163c4a11628f55a4df523b3ef906102039086906103be565b60405180910390a35060019392505050565b600281565b600160a060020a0381166000908152602081905260409020545b919050565b60405180604001604052806003815260200160e860020a624d55430281525081565b60008282111561027e5760e060020a634e487b7102600052600160045260246000fd5b61028882846103ed565b9392505050565b60008061029c83856103d5565b9050838110156102885760e060020a634e487b7102600052600160045260246000fd5b8035600160a060020a038116811461023457600080fd5b6000602082840312156102e7578081fd5b610288826102bf565b600080600060608486031215610304578182fd5b61030d846102bf565b925061031b602085016102bf565b9150604084013590509250925092565b901515815260200190565b6000602080835283518082850152825b8181101561036257858101830151858201604001528201610346565b818111156103735783604083870101525b50601f01601f1916929092016040019392505050565b6020808252818101527f546865206f776e657220686173206e6f20656e6f7567682062616c616e636521604082015260600190565b90815260200190565b60ff91909116815260200190565b600082198211156103e8576103e8610404565b500190565b6000828210156103ff576103ff610404565b500390565b60e060020a634e487b710260009081526011600452602490fdfea26469706673582212206040de48ee31f7ab146cf6b8c32edd594d3e02f77bce7b1cde006e0d7ddcc21964736f6c63430008000033",
  "immutableReferences": {},
  "source": "pragma solidity >=0.4.0 <0.9.0;\n\n/*\n * A simple token pool implement token exchange functionlity. \n */\ninterface TokenPool {\n    function totalSupply() external view returns (uint256);\n\n    function balanceOf(address account) external view returns (uint256);\n\n    function transferFrom(\n        address sender,\n        address recipient,\n        uint256 amount\n    ) external returns (bool);\n\n    event Transfer(address indexed from, address indexed to, uint256 value);\n    \n}\n\n\ncontract MusicCoin is TokenPool {\n    string public constant name = \"MusicCoin\";\n    string public constant symbol = \"MUC\";\n    uint8 public constant decimals = 2;\n\n    // Map user address to the amount of balance\n    mapping(address => uint256) balances;\n\n    uint256 _totalSupply = 100 ether;\n\n    using SafeMath for uint256;\n\n    // Create token when the contract is created\n    constructor() {\n        balances[msg.sender] = _totalSupply;\n    }\n\n    /*\n     * The total amount of tokens in the pool.\n     */\n    function totalSupply() public view override returns (uint256) {\n        return _totalSupply;\n    }\n\n    /*\n     * The balance of the user.\n     * \n     * @param[in] tokenOwner: The user address.\n     * @param[out] balance: The user balance.\n     */\n    function balanceOf(address tokenOwner)\n        public\n        view\n        override\n        returns (uint256)\n    {\n        return balances[tokenOwner];\n    }\n\n    /*\n     * Transfer tokens from one account to another.\n     * \n     * @param[in] owner: The sender address.\n     * @param[in] buyer: The receiver address.\n     * @param[in]: numTokens: The number of tokens to transfer.\n     */\n    function transferFrom(\n        address owner,\n        address buyer,\n        uint256 numTokens\n    ) public override returns (bool) {\n        require(numTokens <= balances[owner], \"The owner has no enough balance!\");\n        balances[owner] = balances[owner].sub(numTokens);\n        balances[buyer] = balances[buyer].add(numTokens);\n        emit Transfer(owner, buyer, numTokens);\n        return true;\n    }\n}\n\nlibrary SafeMath {\n    function sub(uint256 a, uint256 b) internal pure returns (uint256) {\n        assert(b <= a);\n        return a - b;\n    }\n\n    function add(uint256 a, uint256 b) internal pure returns (uint256) {\n        uint256 c = a + b;\n        assert(c >= a);\n        return c;\n    }\n}\n\n/*\n * A simple decentralized exchange system.\n * \n */\ncontract DEX {\n    event Bought(uint256 amount);\n    event Sold(uint256 amount);\n\n    TokenPool public token;\n    uint256 public exchange_rate = 10**14;\n\n    constructor() {\n        token = new MusicCoin();\n    }\n\n    /*\n     * Get the total supply of the token pool.\n     */\n    function getTokenSupply() public view returns (uint256) {\n        return token.totalSupply();\n    }\n\n    /*\n     * Get the contract address.\n     */\n    function getContractAddress() public view returns (address) {\n        return address(this);\n    }\n\n    /*\n     * Get the token balance of the DEX.\n     */\n    function getPoolTokenBalance() public view returns (uint256) {\n        return token.balanceOf(address(this));\n    }\n\n    /*\n     * Get the ETH balance of the DEX.\n     */\n    function getPoolEtherBalance() public view returns (uint256) {\n        return address(this).balance;\n    }\n\n    /*\n     * Buy tokens from the contract using ETH. \n     * The ratio is Ether:Token = 1:10000.\n     */\n    function buy() public payable {\n        uint256 amountTobuy = msg.value;\n        uint256 dexBalance = token.balanceOf(address(this));\n        require(amountTobuy > 0, \"You need to send some Ether\");\n        require(amountTobuy <= dexBalance, \"Not enough tokens in the reserve\");\n        token.transferFrom(address(this), msg.sender, amountTobuy / exchange_rate);\n        emit Bought(amountTobuy);\n    }\n\n    /*\n     * Sell contract the user owns then convert to ETH.\n     * The ratio is Ether:Token = 1:10000.\n     * \n     * @param[in] amount: The number of tokens to be sold.\n     */\n    function sell(uint256 amount) public {\n        require(amount > 0, \"You need to sell at least some tokens\");\n        token.transferFrom(msg.sender, address(this), amount);\n\n        uint256 weiAmount = amount * exchange_rate;\n\n        (bool success, ) = msg.sender.call{value: weiAmount}(\"\");\n\n        require(success, \"Transfer Ether failed.\");\n        emit Sold(amount);\n    }\n\n    /*\n     * Transfer tokens from msg.sender to receiver.\n     * \n     * @param[in] receiver: The receiver address.\n     * @param[in] amount: The number of tokens to be transfered.\n     */\n    function transferToken(\n        address receiver,\n        uint256 amount\n    ) public {\n        require(amount > 0, \"You need to enter at least some tokens\");\n        token.transferFrom(msg.sender, receiver, amount);\n    }\n\n    /*\n     * Transfer token from sender to receiver.\n     * \n     * @param[in] sender: The sender address.\n     * @param[in] receiver: The receiver address.\n     * @param[in] amount: The number of tokens to be transfered.\n     */\n    function transferTokenFrom(\n        address sender,\n        address receiver,\n        uint256 amount\n    ) internal {\n        require(amount > 0, \"You need to enter at least some tokens\");\n        token.transferFrom(sender, receiver, amount);\n    }\n}\n",
  "sourcePath": "/home/fergussojr/Documents/UGM/BlockChain/Demo/finalproject/MusicChain/react/src/contracts/MusicToken.sol",
  "compiler": {
    "name": "solc",
    "version": "0.8.0+commit.c7dfd78e.Emscripten.clang"
  },
  "schemaVersion": "3.4.16",
  "updatedAt": "2025-11-25T15:07:29.497Z",
  "devdoc": {
    "kind": "dev",
    "methods": {},
    "version": 1
  },
  "userdoc": {
    "kind": "user",
    "methods": {},
    "version": 1
  }
}